{
  "transactions": [
    {
      "hash": "0xc54bbd1d429a2aa5385f46a411c52fa878ab148e1445deef7b6a4bec82497771",
      "transactionType": "CALL",
      "contractName": null,
      "contractAddress": "0xc76c0b731696a75010b9f0993c52d341f9168272",
      "function": "mint(string,address,uint256,uint256,uint8,bytes)",
      "arguments": [
        "\"elonmusk\"",
        "0xd015fE70Fd9010Fa727f756CE730975Dd6145F62",
        "1731846308",
        "534351",
        "1",
        "0xc397da0f74587b9b48a4180dfa91b63c2bd1fc8659e1b5e59078465a12c04afa44899fea8eade73d27612c655480422b76c5b3ef41ef5b391ec680d06fdff4f51c"
      ],
      "transaction": {
        "from": "0x4c8f76d4984bfe20cfdddd24d8b3bca75ef76947",
        "to": "0xc76c0b731696a75010b9f0993c52d341f9168272",
        "gas": "0x31643",
        "value": "0x0",
        "input": "0x49becdb500000000000000000000000000000000000000000000000000000000000000c0000000000000000000000000d015fe70fd9010fa727f756ce730975dd6145f62000000000000000000000000000000000000000000000000000000006739e0a4000000000000000000000000000000000000000000000000000000000008274f000000000000000000000000000000000000000000000000000000000000000100000000000000000000000000000000000000000000000000000000000001000000000000000000000000000000000000000000000000000000000000000008656c6f6e6d75736b0000000000000000000000000000000000000000000000000000000000000000000000000000000000000000000000000000000000000041c397da0f74587b9b48a4180dfa91b63c2bd1fc8659e1b5e59078465a12c04afa44899fea8eade73d27612c655480422b76c5b3ef41ef5b391ec680d06fdff4f51c00000000000000000000000000000000000000000000000000000000000000",
        "nonce": "0x3",
        "chainId": "0x8274f"
      },
      "additionalContracts": [],
      "isFixedGasLimit": false
    }
  ],
  "receipts": [
    {
      "status": "0x1",
      "cumulativeGasUsed": "0x21c5a",
      "logs": [
        {
          "address": "0x13625ce84d1c05c6efbd9c056221eec6aa814d10",
          "topics": [
            "0xddf252ad1be2c89b69c2b068fc378daa952ba7f163c4a11628f55a4df523b3ef",
            "0x0000000000000000000000000000000000000000000000000000000000000000",
            "0x000000000000000000000000d015fe70fd9010fa727f756ce730975dd6145f62",
            "0xde292bb62d609ddacd85c426cf0ce7a880bb3fb64bd7543ac05aed385a00938c"
          ],
          "data": "0x",
          "blockHash": "0x03784840d4459da52c07fd7e0a7c1565d352234d532573994548f46735eeef1b",
          "blockNumber": "0x6f6fe5",
          "transactionHash": "0xc54bbd1d429a2aa5385f46a411c52fa878ab148e1445deef7b6a4bec82497771",
          "transactionIndex": "0x0",
          "logIndex": "0x0",
          "removed": false
        },
        {
          "address": "0x13625ce84d1c05c6efbd9c056221eec6aa814d10",
          "topics": [
            "0x85a66b9141978db9980f7e0ce3b468cebf4f7999f32b23091c5c03e798b1ba7a",
            "0x000000000000000000000000d015fe70fd9010fa727f756ce730975dd6145f62",
            "0xde292bb62d609ddacd85c426cf0ce7a880bb3fb64bd7543ac05aed385a00938c"
          ],
          "data": "0x00000000000000000000000000000000000000000000000000000000000000200000000000000000000000000000000000000000000000000000000000000008656c6f6e6d75736b000000000000000000000000000000000000000000000000",
          "blockHash": "0x03784840d4459da52c07fd7e0a7c1565d352234d532573994548f46735eeef1b",
          "blockNumber": "0x6f6fe5",
          "transactionHash": "0xc54bbd1d429a2aa5385f46a411c52fa878ab148e1445deef7b6a4bec82497771",
          "transactionIndex": "0x0",
          "logIndex": "0x1",
          "removed": false
        }
      ],
      "logsBloom": "0x00000000000000000000000000000000020000000000000000000000000000000000000000000000000000100000020004001000000000000000000000000000000000000000000000000008000000000000000000000000000000000000000000000000020000000000000000000800000008000000000000000010000000000000008000000000000000000000000000000000000000000000003000000000000000000000000000000000000000000000000000000000000000000000000000000002000000000000000000000000000200000000000000002000000020000000000000100000000000000000000000000000000000000000000000000000",
      "type": "0x0",
      "transactionHash": "0xc54bbd1d429a2aa5385f46a411c52fa878ab148e1445deef7b6a4bec82497771",
      "transactionIndex": "0x0",
      "blockHash": "0x03784840d4459da52c07fd7e0a7c1565d352234d532573994548f46735eeef1b",
      "blockNumber": "0x6f6fe5",
      "gasUsed": "0x21c5a",
      "effectiveGasPrice": "0x3b954a9c",
      "from": "0x4c8f76d4984bfe20cfdddd24d8b3bca75ef76947",
      "to": "0xc76c0b731696a75010b9f0993c52d341f9168272",
      "contractAddress": null,
      "l1Fee": "0x3d83a412c6"
    }
  ],
  "libraries": [],
  "pending": [],
  "returns": {},
  "timestamp": 1731759944,
  "chain": 534351,
  "commit": "9d17862"
}